:100000000C9477000C949F000C949F000C949F001C
:100010000C949F000C949F000C949F000C949F00E4
:100020000C949F000C949F000C949F000C949F00D4
:100030000C949F000C949F000C949F000C949F00C4
:100040000C949F000C949F000C94CA020C949F0087
:100050000C949F000C949F000C949F000C949F00A4
:100060000C949F000C949F000C949F000C949F0094
:100070000C949F000C949F000C949F000021242757
:100080002A002225282B0020232629020202020210
:10009000020202040404040404040403030303032B
:1000A0000303030101010101010101010204081020
:1000B0002040800102040810204080010204081042
:1000C000204080804020100804020100000001024E
:1000D000000000000000000403070600000000000C
:1000E0000000000000000000000000008502112454
:1000F0001FBECFEFD0E1DEBFCDBF11E0A0E0B1E089
:10010000EEEAF9E002C005900D92AC31B107D9F7E3
:1001100011E0ACE1B1E001C01D92AB33B107E1F7F2
:1001200010E0CEEED0E004C02297FE010E94D10480
:10013000CC3ED107C9F70E94C3020C94D5040C949D
:1001400000000F931F938C01FC01848160E00E94EA
:10015000AE0381E090E00E944803F801848161E0F1
:100160000E94AE0381E090E00E944803F801848180
:1001700060E00E94AE0384E690E00E9448031F9175
:100180000F910895CF92DF92EF92FF920F931F93FA
:10019000CF93DF93D82EC92E282F392FC9018C0178
:1001A000C0E0D0E0E62EFF24F801858161E00E94E6
:1001B0009003B7010C2E02C0759567950A94E2F77B
:1001C0006170F80185810E94AE0321960F5F1F4F79
:1001D000C830D10549F78D2D9C2D0E94A100DF91DB
:1001E000CF911F910F91FF90EF90DF90CF900895E6
:1001F000CF92DF92EF92FF920F931F93CF93DF93F3
:10020000D82EC92E282F392FC9018C01C0E0D0E08B
:10021000E62EFF24F801858161E00E949003B7017A
:100220000C2E02C0759567950A94E2F76170F8018B
:1002300085810E94AE0321960F5F1F4FC430D10508
:1002400049F78D2D9C2D0E94A100DF91CF911F9128
:100250000F91FF90EF90DF90CF9008951F93CF9371
:10026000DF93EC01162F8A81642F0E94AE038B81ED
:1002700060E00E94AE038D8584FF05C0CE01612F32
:100280000E94C2000EC0612F70E084E075956795F2
:100290008A95E1F7CE010E94F800CE01612F0E94FD
:1002A000F800DF91CF911F91089541E00E942E0147
:1002B000089540E00E942E010895FC016685862F76
:1002C000846086876C60CF010E9459010895DF9396
:1002D000CF93CDB7DEB728970FB6F894DEBF0FBE29
:1002E000CDBF9C01FE013196A4E1B1E088E00D9004
:1002F00001928150E1F7F9018189841710F4482FA8
:100300004150E42FF0E0EE0FFF1FEC0FFD1F818145
:10031000680F6068C9010E94590128960FB6F894C9
:10032000DEBF0FBECDBFCF91DF91089561E00E9487
:10033000590180ED97E00E9448030895CF93DF9321
:10034000EC01423018F08D8588608D87498B1A8AC0
:10035000222329F0413019F48D8584608D8780E552
:1003600093EC0E9448038A8160E00E94AE038C8176
:1003700060E00E94AE038B8160E00E94AE036D8559
:1003800064FD1DC0CE0163E00E94F80084E991E1A4
:100390000E944803CE0163E00E94F80084E991E1E5
:1003A0000E944803CE0163E00E94F80086E990E0D5
:1003B0000E944803CE0162E00E94F80016C060620D
:1003C000CE010E94590184E991E10E9448036D85A4
:1003D0006062CE010E94590186E990E00E944803C4
:1003E0006D856062CE010E9459016D856062CE010B
:1003F0000E94590184E08E87CE010E945D01CE01EA
:100400000E94960182E08F87CE0166E00E9459012A
:10041000DF91CF9108956F927F928F92AF92CF929A
:10042000EF920F931F93DF93CF93CDB7DEB73C01CD
:10043000162F842FF301428323830483E582C6822F
:10044000A78280869D8591879E8592879F859387C9
:100450009889948761E00E949003F301838161E0B1
:100460000E949003F301848161E00E9490031123B4
:1004700019F0F301158603C080E1F3018587C301FC
:1004800060E141E020E00E949E01CF91DF911F9149
:100490000F91EF90CF90AF908F907F906F900895D5
:1004A0008F92AF92CF92EF920F931F93CF93DF93E0
:1004B000DC01362F542F722F102FAE2C8C2C82E1A2
:1004C00091E011969C938E9300D000D0EDB7FEB7CB
:1004D0003196CDB7DEB71982118212821382CD0117
:1004E00061E0432F2FEF052FE72EC12E0E940B0254
:1004F0000F900F900F900F90DF91CF911F910F9160
:10050000EF90CF90AF908F900895CF92EF920F938E
:100510008CE191E060E141E122E103E154E1E52E6B
:1005200035E1C32E0E9450020F91EF90CF900895B5
:100530000F931F930CE111E0C80160E041E00E94BD
:1005400067010E943A0328EE33E040E050E00E9449
:10055000AD04C801BA01A9010E94A9041F910F911D
:1005600008950F931F930CE111E0C80160E142E090
:1005700020E00E949E01C80160E071E00E94F90342
:100580001F910F9108950E9456030E94B1020E948C
:100590009802FDCF1F920F920FB60F9211242F9346
:1005A0008F939F93AF93BF9380912F0190913001D0
:1005B000A0913101B09132010196A11DB11D80932E
:1005C0002F0190933001A0933101B09332018091BB
:1005D000330190913401A0913501B09136018050E2
:1005E000904CAF4FBF4F8093330190933401A09351
:1005F0003501B093360127C08091330190913401C9
:10060000A0913501B091360180589E43A040B04082
:100610008093330190933401A0933501B093360158
:100620008091370190913801A0913901B0913A0140
:100630000196A11DB11D8093370190933801A093BD
:100640003901B0933A018091330190913401A09126
:100650003501B091360181589E43A040B04060F60C
:10066000BF91AF919F918F912F910F900FBE0F90DF
:100670001F9018958FB7F894209137013091380169
:100680004091390150913A018FBFB901CA010895D3
:10069000019759F0FC01EE0FFF1FEE0FFF1F32977D
:1006A0008FB7F8943197F1F78FBF0895789484B598
:1006B000826084BD84B5816084BD85B5826085BD5E
:1006C00085B5816085BDEEE6F0E080818160808344
:1006D000E1E8F0E0808182608083808181608083B6
:1006E000E0E8F0E0808181608083E1EBF0E08081F0
:1006F00084608083E0EBF0E0808181608083EAE7C2
:10070000F0E080818460808380818260808380814A
:10071000816080838081806880831092C100089509
:10072000282F30E0C90185559F4FFC019491255732
:100730003F4FF9018491882381F0E82FF0E0E458DD
:10074000FF4FE491F0E0662329F48081909589239E
:10075000808308958081892B80830895482F50E0FD
:10076000CA0185539F4FFC012491CA0185559F4FB3
:10077000FC01949145575F4FFA0134913323C1F145
:10078000222331F1213019F484B58F7704C022304F
:1007900021F484B58F7D84BD1BC0233021F480916A
:1007A00080008F7705C0243031F4809180008F7DE8
:1007B000809380000DC0263021F48091B0008F77A7
:1007C00005C0273029F48091B0008F7D8093B00060
:1007D000E32FF0E0EF57FF4FE491F0E0662329F4B8
:1007E000808190958923808308958081892B8083DF
:1007F00008950F931F93CF93DF938C01EB0109C0F2
:100800002196D801ED91FC910190F081E02DC80175
:10081000099568816623A1F7DF91CF911F910F9110
:1008200008952F923F924F925F926F927F928F9294
:100830009F92AF92BF92CF92DF92EF92FF920F936F
:100840001F93DF93CF93CDB7DEB7A0970FB6F89481
:10085000DEBF0FBECDBF1C016A017B0141155105F2
:100860006105710549F4DC01ED91FC910190F08185
:10087000E02D60E3099554C0882499245401422E48
:1008800055246624772401E010E00C0F1D1F080D8D
:10089000191DC701B601A30192010E94AD04F80120
:1008A00060830894811C911CA11CB11CC701B60176
:1008B000A30192010E94AD04C901DA016C017D011E
:1008C000C114D104E104F104F1F681E0E82EF12C29
:1008D000EC0EFD1EE80CF91C3E010894611C711C15
:1008E000D501C4010197A109B1096C01C818D90843
:1008F00014C0F601EE0DFF1D60816A3010F4605DDA
:1009000001C0695CD101ED91FC910190F081E02D75
:10091000C10109950894E108F1086E147F0449F7B4
:10092000A0960FB6F894DEBF0FBECDBFCF91DF917A
:100930001F910F91FF90EF90DF90CF90BF90AF90FD
:100940009F908F907F906F905F904F903F902F90EF
:1009500008952AE00E9411040895A1E21A2EAA1B0C
:10096000BB1BFD010DC0AA1FBB1FEE1FFF1FA2175F
:10097000B307E407F50720F0A21BB30BE40BF50B5C
:10098000661F771F881F991F1A9469F760957095E5
:10099000809590959B01AC01BD01CF010895EE0FAC
:0E09A000FF1F0590F491E02D0994F894FFCF0D
:1009AE0068656C6C6F2C20776F726C642100000090
:0C09BE000000550100004000140054002F
:00000001FF
