:100000000C9476000C9493000C9493000C94930041
:100010000C9493000C9493000C9493000C94930014
:100020000C9493000C9493000C9493000C94930004
:100030000C9493000C9493000C9493000C949300F4
:100040000C9493000C9493000C94B9000C949300BE
:100050000C9493000C9493000C9493000C949300D4
:100060000C9493000C9493000C9493000C949300C4
:100070000C9493000C9493000C949300002124277B
:100080002A002225282B0020232629020202020210
:10009000020202040404040404040403030303032B
:1000A0000303030101010101010101010204081020
:1000B0002040800102040810204080010204081042
:1000C000204080804020100804020100000001024E
:1000D000000000000000000403070600000000000C
:1000E00000000000000000000000000011241FBEFE
:1000F000CFEFD0E1DEBFCDBF11E0A0E0B1E0E0EF97
:10010000F3E002C005900D92A030B107D9F711E0DD
:10011000A0E0B1E001C01D92AE30B107E1F70E944E
:10012000B2000C94F6010C9400008091000161E093
:100130000E94AB0164E170E080E090E00E94290140
:100140008091000160E00E94AB0164E170E080E01A
:1001500090E00E94290108958091000161E00E94D1
:100160008D0108950E9453010E94AC000E949500E9
:10017000FDCF1F920F920FB60F9211242F938F93E2
:100180009F93AF93BF938091020190910301A0913F
:100190000401B09105010196A11DB11D80930201DA
:1001A00090930301A0930401B0930501809106018F
:1001B00090910701A0910801B09109018050904CE5
:1001C000AF4FBF4F8093060190930701A0930801A2
:1001D000B093090127C08091060190910701A09179
:1001E0000801B091090180589E43A040B04080931F
:1001F000060190930701A0930801B0930901809133
:100200000A0190910B01A0910C01B0910D01019692
:10021000A11DB11D80930A0190930B01A0930C01C5
:10022000B0930D018091060190910701A091080102
:10023000B091090181589E43A040B04060F6BF9143
:10024000AF919F918F912F910F900FBE0F901F90A4
:100250001895EF92FF920F931F937B018C018FB73C
:10026000F89440910A0150910B0160910C0170913A
:100270000D018FBF2FB7F89480910A0190910B0167
:10028000A0910C01B0910D012FBF841B950BA60B03
:10029000B70BE816F9060A071B0760F71F910F91C5
:1002A000FF90EF900895789484B5826084BD84B502
:1002B000816084BD85B5826085BD85B5816085BD61
:1002C000EEE6F0E0808181608083E1E8F0E080810B
:1002D00082608083808181608083E0E8F0E08081BB
:1002E00081608083E1EBF0E0808184608083E0EBDB
:1002F000F0E0808181608083EAE7F0E080818460C3
:10030000808380818260808380818160808380811E
:10031000806880831092C1000895282F30E0C901C1
:1003200085559F4FFC01949125573F4FF9018491CA
:10033000882381F0E82FF0E0E458FF4FE491F0E0EB
:10034000662329F480819095892380830895808194
:10035000892B80830895482F50E0CA0185539F4F11
:10036000FC012491CA0185559F4FFC01949145578A
:100370005F4FFA0134913323C1F1222331F121304F
:1003800019F484B58F7704C0223021F484B58F7DB1
:1003900084BD1BC0233021F4809180008F7705C07D
:1003A000243031F4809180008F7D809380000DC0D7
:1003B000263021F48091B0008F7705C0273029F4D2
:1003C0008091B0008F7D8093B000E32FF0E0EF5775
:1003D000FF4FE491F0E0662329F480819095892312
:1003E000808308958081892B80830895F894FFCFBE
:00000001FF
